:020000040800F2
:10000000004000205D350008E9030008ED0300080A
:10001000F1030008F5030008F903000800000000E0
:100020000000000000000000000000001132000885
:10003000FD03000800000000B1320008153300087D
:10004000AD350008AD350008AD350008AD35000808
:10005000AD350008AD350008AD350008AD350008F8
:10006000AD350008AD350008AD350008AD350008E8
:10007000AD350008AD350008AD350008AD350008D8
:10008000AD350008AD350008AD350008AD350008C8
:10009000AD350008AD350008AD350008AD350008B8
:1000A000AD35000801040008AD350008AD35000885
:1000B000AD3500080000000000000000AD3500086C
:1000C000AD350008AD350008AD3500080000000072
:1000D000AD350008AD350008AD350008AD35000878
:1000E000AD350008AD350008AD3500080000000052
:1000F0000000000000000000000000000000000000
:10010000000000000000000000000000AD35000805
:100110000000000000000000AD35000800000000F5
:1001200000000000000000000000000000000000CF
:1001300000000000000000000000000000000000BF
:10014000AD350008AD3500080000000000000000DB
:10015000000000000000000000000000000000009F
:10016000AD350008AD350008AD350008AD350008E7
:10017000AD35000800000000000000000000000095
:0801800000000000AD3500088D
:1001900010B5054C237833B9044B13B10448AFF3C1
:1001A00000800123237010BD10000020000000001B
:1001B00024360008084B10B51BB108490848AFF3B6
:1001C00000800848036803B910BD074B002BFBD023
:1001D000BDE81040184700BF0000000014000020D8
:1001E00024360008100000200000000070B58AB01E
:1001F000002405940694079408940994204B5A69A6
:1002000042F400225A615A6902F400220192019AD2
:100210005A6942F480025A615A6902F480020292D9
:10022000029A5A6942F400325A615A6902F4003261
:100230000392039A5A6942F480225A615B6903F47B
:1002400080230493049B0F4D22464FF4005128460F
:1002500000F0A2FE4FF4005605960B4B0693079450
:1002600005A90A4800F0D4FD0596012306930794DA
:10027000089405A9284600F0CBFD0AB070BD00BF68
:10028000001002400004004800002110000800484F
:1002900008B50948094B03604FF416434360002337
:1002A0008360C36003610C2242618361C3610362A6
:1002B000436201F05FFA08BD381900200044004095
:1002C00008B5012002F0FAFDFBE700BF10B584B0CD
:1002D000094B6C460FCB07C424F8023B1B0C237060
:1002E0004FF4FA730F226946044801F0A1F94FF464
:1002F0007A7002F0E3FDF3E7843600083819002035
:1003000008B54FF40051034800F04CFEC82002F03D
:10031000D5FDF6E70004004830B591B02822002151
:1003200006A803F076F9002401940294039404943F
:1003300005940225069501230A9310230B930D952E
:100340004FF460130F9306A800F0D6F80F23019323
:10035000029503944FF4806304930594294601A801
:1003600000F02CFC11B030BD08B500F0A1F8FFF78B
:10037000D3FFFFF73BFFFFF78BFF02F0E3FC0C4AD4
:1003800000210C4802F026FD0B4B18600B4A00219F
:100390000B4802F01FFD0B4B18600B4A00210B4865
:1003A00002F018FD0A4B186002F0EEFCFEE700BFF9
:1003B0003C360008CD0200083019002060360008E5
:1003C0000103000834190020BC360008C1020008EF
:1003D000B819002008B50268024B9A4201D100F01A
:1003E00079F808BD002C0140704700BFFEE700BF50
:1003F000FEE700BFFEE700BFFEE700BF704700BF9B
:1004000008B5024800F048FE08BD00BF001A0020F1
:1004100000B583B00D4B9A6942F001029A619A6966
:1004200002F001020092009ADA6942F08052DA6129
:10043000DB6903F080530193019B00220F216FF0D1
:10044000010000F0C9FD03B05DF804FB001002409C
:1004500000B589B000230393049305930693079393
:100460000268124B9A421ED103F5E633DA6942F470
:100470000032DA61DA6902F400320192019A5A69B3
:1004800042F400325A615B6903F400330293029B29
:100490000C230393022304930723079303A94FF02C
:1004A000904000F0B5FC09B05DF804FB004400404A
:1004B00008B5074A136843F010031360032000F0E7
:1004C00079FD002003F00EF8FFF7A2FF002008BD21
:1004D00000200240034A1368034909780B44136063
:1004E000704700BFBC19002004000020014B1868B1
:1004F000704700BFBC190020002800F0FA8270B5D8
:1005000082B00446036813F0010F00F09D80B74BE2
:100510005B6803F00C03042B0AD0B44B5B6803F058
:100520000C03082B1BD1B14B5B6813F4803F16D032
:100530004FF4003393FAA3F3AC4B19684FF4003334
:1005400093FAA3F3B3FA83F303F01F03012202FA31
:1005500003F3194278D06368002B75D1CBE263684E
:10056000B3F5803F05D1A14A136843F4803313608B
:1005700026E063B903F1804303F504331A6822F4DB
:1005800080321A601A6822F480221A6018E0B3F5EB
:10059000A02F0CD103F18043A3F53C331A6842F439
:1005A00080221A601A6842F480321A6008E08F4B89
:1005B0001A6822F480321A601A6822F480221A60C3
:1005C0008A49CB6A23F00F02A3681343CB626368A6
:1005D000EBB1FFF78BFF054605E0FFF787FF401BF8
:1005E000642800F28A824FF4003393FAA3F37F4B1E
:1005F00019684FF4003393FAA3F3B3FA83F303F0CB
:100600001F03012202FA03F31942E6D01CE0FFF7B0
:100610006DFF054605E0FFF769FF401B642800F207
:100620006E824FF4003393FAA3F3704B19684FF4C2
:10063000003393FAA3F3B3FA83F303F01F03012209
:1006400002FA03F31942E6D1236813F0020F00F017
:100650009080664B5B6813F00C0F0AD0634B5B68AD
:1006600003F00C03082B27D1604B5B6813F4803F29
:1006700022D1022393FAA3F35C4B1968022393FA65
:10068000A3F3B3FA83F303F01F03012202FA03F387
:10069000194203D02369934240F0338253480368E0
:1006A00023F0F8016369F82292FAA2F2B2FA82F218
:1006B00093400B4303605CE023699BB3012292FAF1
:1006C000A2F3B3FA83F303F1845303F584139B007D
:1006D0001A60FFF70BFF054605E0FFF707FF401B19
:1006E000022800F21582022393FAA3F33F4B196804
:1006F000022393FAA3F3B3FA83F303F01F03012257
:1007000002FA03F31942E8D03848036823F0F801ED
:100710006369F82292FAA2F2B2FA82F293400B4392
:10072000036026E0012393FAA3F3B3FA83F303F102
:10073000845303F584139B0000221A60FFF7D6FE52
:10074000054605E0FFF7D2FE401B022800F2E281D9
:10075000022393FAA3F3254B1968022393FAA3F318
:10076000B3FA83F303F01F03012202FA03F31942E1
:10077000E8D1236813F0080F56D0A3693BB30121D9
:1007800091FAA1F2B2FA82F2194B13449B0019605C
:10079000FFF7ACFE054605E0FFF7A8FE401B022868
:1007A00000F2BA81022393FAA3F293FAA3F293FA26
:1007B000A3F20E4A516A93FAA3F3B3FA83F303F058
:1007C0001F03012202FA03F31942E5D02CE00122B3
:1007D00092FAA2F2B2FA82F2054B13449B00002275
:1007E0001A60FFF783FE05460AE000BF00100240D2
:1007F00020819010FFF77AFE401B022800F28E81C4
:10080000022393FAA3F293FAA3F293FAA3F2BE4A55
:10081000516A93FAA3F3B3FA83F303F01F0301229F
:1008200002FA03F31942E5D1236813F0040F00F034
:10083000BA80B54BDB6913F0805F0BD1B24BDA693C
:1008400042F08052DA61DB6903F080530193019B2F
:10085000012500E00025AD4B1B6813F4807F13D108
:10086000AA4A136843F480731360FFF73FFE0646FD
:1008700005E0FFF73BFE801B642800F25181A34B8B
:100880001B6813F4807FF4D0E368012B05D19E4AE6
:10089000136A43F00103136222E063B903F180435A
:1008A00003F504331A6A22F001021A621A6A22F06E
:1008B00004021A6214E0052B09D1934B1A6A42F024
:1008C00004021A621A6A42F001021A6208E08E4BB0
:1008D0001A6A22F001021A621A6A22F004021A62EB
:1008E000E3686BB3FFF702FE064607E0FFF7FEFD85
:1008F000801B41F28833984200F21481022393FA5C
:10090000A3F293FAA3F3B3FA83F35B0943F0020370
:10091000DBB2022B02D17C4B196A04E0022393FA6A
:10092000A3F3794B596A022393FAA3F3B3FA83F33F
:1009300003F01F03012202FA03F31942D6D02CE080
:10094000FFF7D4FD064607E0FFF7D0FD801B41F21C
:100950008833984200F2E880022393FAA3F293FAD4
:10096000A3F3B3FA83F35B0943F00203DBB2022B78
:1009700002D1654B196A04E0022393FAA3F3624B98
:10098000596A022393FAA3F3B3FA83F303F01F0324
:10099000012202FA03F31942D6D125B15A4AD3698A
:1009A00023F08053D361E369002B00F0BF80564AE7
:1009B000526802F00C02082A00F08B80022B5DD1F5
:1009C0004FF0807393FAA3F3B3FA83F303F18453E4
:1009D00003F584139B0000221A60FFF787FD05468C
:1009E00005E0FFF783FD401B022800F2A1804FF0D5
:1009F000007393FAA3F3444B19684FF0007393FA12
:100A0000A3F3B3FA83F303F01F03012202FA03F303
:100A10001942E6D13C48436823F47411636A226AA0
:100A200013430B4343604FF0807393FAA3F3B3FA7D
:100A300083F303F1845303F584139B0001221A60AE
:100A4000FFF754FD044604E0FFF750FD001B0228A9
:100A500070D84FF0007393FAA3F32B4B19684FF043
:100A6000007393FAA3F3B3FA83F303F01F03012295
:100A700002FA03F31942E7D0002064E04FF08073DC
:100A800093FAA3F3B3FA83F303F1845303F58413C6
:100A90009B0000221A60FFF729FD044604E0FFF7DF
:100AA00025FD001B022847D84FF0007393FAA3F3EB
:100AB000154B19684FF0007393FAA3F3B3FA83F35D
:100AC00003F01F03012202FA03F31942E7D10020C9
:100AD00039E0012B32D00C4B5B6803F48031226A81
:100AE00091422DD103F47013626A93422AD00120FF
:100AF00029E001207047012025E0032023E00320A6
:100B000021E001201FE000BF001002400070004003
:100B1000032018E0032016E0032014E0032012E075
:100B2000032010E003200EE003200CE000200AE088
:100B3000032008E0032006E0032004E0012002E097
:100B4000012000E0002002B070BD00BF164B5B68C2
:100B500003F00C02082A25D103F470114FF470122F
:100B600092FAA2F2B2FA82F221FA02F20F498A5CF8
:100B70000D49C96A01F00F000F2191FAA1F1B1FAF4
:100B800081F120FA01F10A48405C13F4803F05D05E
:100B9000084BB3FBF0F000FB02F07047064800FB87
:100BA00002F070470348704700100240F03600081A
:100BB000E036000800127A0000093D00002800F02D
:100BC000BB8070B50446634B1B6803F007038B4280
:100BD0000BD2604A136823F007030B4313601368BA
:100BE00003F00703994240F0A980236813F0020F35
:100BF00006D05948436823F0F002A36813434360CA
:100C00000D46236813F0010F56D06268012A13D1F4
:100C10004FF4003393FAA3F34F4B18684FF40033AB
:100C200093FAA3F3B3FA83F303F01F03012101FA4C
:100C300003F3184227D183E0022A13D14FF0007347
:100C400093FAA3F3444B18684FF0007393FAA3F39D
:100C5000B3FA83F303F01F03012101FA03F31842EF
:100C600011D16FE0022393FAA3F33B4B18680223E0
:100C700093FAA3F3B3FA83F303F01F03012101FAFC
:100C800003F3184260D034494B6823F00303134345
:100C90004B60FFF72BFC064606E0FFF727FC801BA6
:100CA00041F28833984251D82B4B5B6803F00C0318
:100CB0006268B3EB820FF0D1264B1B6803F0070389
:100CC0009D420AD2234A136823F007032B43136083
:100CD000136803F007039D423AD1236813F0040F11
:100CE00006D01D494B6823F4E062E36813434B6070
:100CF000236813F0080F07D0174A536823F4605392
:100D0000216943EAC1035360FFF720FF124B5B6880
:100D100003F0F002F02393FAA3F3B3FA83F322FA79
:100D200003F30E4AD35CD8400D4B18600D4B186886
:100D300002F0D8FB002070BD01207047012070BD7B
:100D4000012070BD012070BD012070BD032070BD69
:100D5000012070BD00200240001002400037000852
:100D60000800002000000020014B1868704700BFF9
:100D70000800002008B5FFF7F7FF084B5B6803F495
:100D8000E0624FF4E06393FAA3F3B3FA83F322FA39
:100D900003F3034AD35CD84008BD00BF00100240F3
:100DA0001037000808B5FFF7DFFF084B5B6803F456
:100DB00060524FF4605393FAA3F3B3FA83F322FA29
:100DC00003F3034AD35CD84008BD00BF00100240C3
:100DD000103700080F2303600B4B5A6802F0030220
:100DE00042605A6802F0F00282605A6802F4E062DF
:100DF000C2605B68DB0803F4E0630361034B1B68BC
:100E000003F007030B60704700100240002002400F
:100E1000F0B583B00023AFE001249C40224000F0F5
:100E2000AA804D68022D01D0122D10D1DE0808369F
:100E300050F826C003F00705AF000F25BD402CEA8F
:100E4000050E0D69BD404EEA050540F826500568BF
:100E50005F000326BE40F64305EA060E4D6805F026
:100E60000305BD404EEA050505604D6805F1FF3EEE
:100E7000BEF1010F03D9112D01D0122D10D18568BB
:100E800006EA050ECD68BD404EEA05058560456859
:100E900025EA04044D68C5F300159D4025434560CF
:100EA000C46826408C68BC403443C4604C6814F06D
:100EB000805F60D0344CA56945F00105A561A46947
:100EC00004F001040194019C9E08B51C2F4C54F8B9
:100ED000255003F00304A4000F27A74025EA0707C5
:100EE000B0F1904F0CD02A4DA8420BD005F580658B
:100EF000A84209D005F58065A84207D1032506E080
:100F0000002504E0012502E0022500E0052505FAA0
:100F100004F43C4302361D4D45F826401D4C25681F
:100F2000D44305EA04064F6817F4803F01D042EA33
:100F30000506184D2E606D6804EA05064F6817F423
:100F4000003F01D042EA0506124D6E60AD6804EA2A
:100F500005064F6817F4801F01D042EA05060D4DC3
:100F6000AE60ED682C404E6816F4001F01D042EAD6
:100F70000504084AD46001330A6832FA03F47FF4A6
:100F80004BAF03B0F0BD00BF0010024000000140B5
:100F900000040048000401400AB181617047816289
:100FA000704700BF43690B4202D00904816170475A
:100FB00081617047074AD36823F4E0631B041B0C6C
:100FC000000200F4E060184340F0BF6040F40030DD
:100FD000D060704700ED00E030B4164BDB68C3F31F
:100FE0000223C3F10704042C28BF04241D1D062D71
:100FF00001D9DD1E00E00025012303FA04F4013CC1
:101000002140A940AB40013B1A400A43002808DBBD
:101010001201D2B200F1604000F5614080F8002377
:1010200005E000F00F001201D2B2034B1A5430BC9D
:10103000704700BF00ED00E014ED00E0002808DB81
:10104000420900F01F00012303FA00F0014B43F8AE
:101050002200704700E100E0704700BF0268D368DB
:1010600043F00103D36002689168064B0B40062BE6
:1010700006D0B3F5803F03D0136843F0010313603B
:101080000020704707000100704700BF704700BF95
:10109000704700BF704700BF10B5044603681A6967
:1010A00012F0020F17D0DA6812F0020F13D06FF0AF
:1010B00002021A610123037703689B6913F0030F8F
:1010C00002D0FFF7E3FF04E0FFF7DEFF2046FFF763
:1010D000DFFF0023237723681A6912F0040F19D069
:1010E000DA6812F0040F15D06FF004021A610223BF
:1010F000237723689B6913F4407F03D02046FFF7D2
:10110000C5FF05E02046FFF7BFFF2046FFF7C0FF01
:101110000023237723681A6912F0080F19D0DA68C0
:1011200012F0080F15D06FF008021A61042323771C
:101130002368DB6913F0030F03D02046FFF7A6FFF7
:1011400005E02046FFF7A0FF2046FFF7A1FF0023A0
:10115000237723681A6912F0100F19D0DA6812F099
:10116000100F15D06FF010021A610823237723683F
:10117000DB6913F4407F03D02046FFF787FF05E0CB
:101180002046FFF781FF2046FFF782FF00232377E9
:1011900023681A6912F0010F09D0DA6812F0010F02
:1011A00005D06FF001021A612046FFF713F923689A
:1011B0001A6912F0800F09D0DA6812F0800F05D09A
:1011C0006FF080021A61204600F08CF823681A69DB
:1011D00012F4807F09D0DA6812F0800F05D06FF426
:1011E00080721A61204600F07FF823681A6912F0B5
:1011F000400F09D0DA6812F0400F05D06FF04002BE
:101200001A612046FFF746FF23681A6912F0200F83
:1012100009D0DA6812F0200F05D06FF020021A61B1
:10122000204600F05DF810BD03681E4A904202D0CF
:10123000B0F1804F03D123F070034A681343194A79
:1012400090420ED0B0F1804F0BD002F5A0529042E8
:1012500007D002F58062904203D002F5806290428E
:1012600003D123F44073CA68134323F080034A690F
:10127000134303608B68C3620B688362094B984217
:101280000BD003F5A053984207D003F58063984232
:1012900003D003F58063984201D10B6903630123F6
:1012A00043617047002C0140B8B110B5044690F876
:1012B0003D3013F0FF0F04D1002380F83C30FFF7DE
:1012C000CBFE022384F83D30211D2068FFF7ACFFE0
:1012D000012384F83D30002010BD0120704700BF7D
:1012E000704700BF704700BF704700BF10B504468D
:1012F000826803691A4343691A43C3691A43016840
:1013000008686C4B034013430B6021684B6823F45F
:101310004052E36813434B60A269236A1A43216871
:101320008B6823F4306313438B602368624A9342D3
:1013300011D1624B1B6B03F00303032B09D8DFE8C9
:1013400003F002040613002313E0042311E0082332
:101350000FE010230DE05A4A934207D002F5806255
:10136000934205D1002304E0022302E0002300E0C1
:101370001023E269B2F5004F4ED1082B3BD8DFE8CD
:1013800003F005101B3A263A3A3A3100FFF7F2FC17
:1013900063685A0802EB4000B0FBF3F39BB20020F5
:1013A0002BE0FFF7FFFC63685A0802EB4000B0FB3C
:1013B000F3F39BB2002020E061684A0802F5740351
:1013C00003F51053B3FBF1F39BB2002015E0FFF7D8
:1013D000BDFB63685A0802EB4000B0FBF3F39BB21D
:1013E00000200AE06268530803F58033B3FBF2F390
:1013F0009BB2002001E001200023A3F110014FF671
:10140000EF7291424ED89AB222F00F02C3F3420318
:1014100013432268D36048E0082B38D8DFE803F094
:10142000050F1937243737372E00FFF7A3FC636801
:1014300000EB5300B0FBF3F39BB2002029E0FFF771
:10144000B1FC636800EB5300B0FBF3F39BB20020E8
:101450001FE061684A0802F5F40303F59053B3FBFB
:10146000F1F39BB2002014E0FFF770FB636800EB20
:101470005300B0FBF3F39BB200200AE0626853080C
:1014800003F50043B3FBF2F39BB2002001E001201F
:101490000023A3F110014FF6EF72914204D82268A5
:1014A000D36002E0012000E0012000232366636690
:1014B00010BD00BFF369FFEF00380140001002408B
:1014C00000440040436A13F0010F06D001684B68E6
:1014D00023F40032836A13434B60436A13F0020F14
:1014E00006D001684B6823F48032C36A13434B6013
:1014F000436A13F0040F06D001684B6823F480227E
:10150000036B13434B60436A13F0080F06D0016866
:101510004B6823F40042436B13434B60436A13F060
:10152000100F06D001688B6823F48052836B13433D
:101530008B60436A13F0200F06D001688B6823F498
:101540000052C36B13438B60436A13F0400F11D0FA
:1015500001684B6823F48012036C13434B60036CE7
:10156000B3F5801F06D101684B6823F4C002436CB9
:1015700013434B60436A13F0800F06D001684B6839
:1015800023F40022836C13434B6070472DE9F04134
:1015900004460F4616469846069D3CE0B5F1FF3FCF
:1015A00039D0FEF7A3FFC8EB0000854200D395B900
:1015B0002268136823F4D07313602268936823F0C1
:1015C0000103936020236367A367002384F87030CE
:1015D0000320BDE8F08123681A6812F0040F1AD0C6
:1015E000DA6912F4006F16D04FF400621A622268B2
:1015F000136823F4D07313602268936823F0010307
:10160000936020236367A367E367002384F8703047
:101610000320BDE8F0812368DB6937EA03030CBFD0
:1016200001230023B342B9D00020BDE8F08100BF00
:101630002DE9F04182B01E46436F202B56D104465F
:101640000D469046002953D0002A53D090F87030B0
:10165000012B51D0012380F870300023C367212370
:101660004367FEF743FF0746A4F85080A4F8528072
:10167000A368B3F5805F04D123692BB14FF0000854
:1016800020E04FF000081DE0A84600251AE0009673
:101690003B46002280212046FFF778FF70BB35B91A
:1016A000226838F8023BC3F30803138503E023687C
:1016B00015F8012B1A85B4F852309BB2013B9BB24E
:1016C000A4F85230B4F852309BB2002BDFD1009610
:1016D0003B46002240212046FFF758FF034678B9D9
:1016E00020226267002284F870200AE0022308E0CA
:1016F000012306E0012304E0022302E0032300E0CB
:101700000323184602B0BDE8F08100BF30B583B0B6
:1017100004460023C367FEF7E9FE054623681B68FD
:1017200013F0080F0AD06FF07E43009303460022A7
:101730004FF400112046FFF729FFB0B923681B685A
:1017400013F0040F0AD06FF07E4300932B46002263
:101750004FF480012046FFF719FF40B9202363674B
:10176000A367002084F8700002E0032000E003205B
:1017700003B030BD58B310B50446436F1BB980F8B1
:101780007030FEF765FE242363672268136823F038
:10179000010313602046FFF7A9FD012819D0636AF1
:1017A00013B12046FFF78EFE2268536823F490435E
:1017B00053602268936823F02A03936022681368B9
:1017C00043F0010313602046FFF7A0FF10BD012086
:1017D000704710BD054BD3F8882042F47002C3F85F
:1017E00088204FF000629A60704700BF00ED00E073
:1017F00000F1080343604FF0FF328260C360036171
:1018000000230360704700BF00230361704700BFDF
:1018100043684B609A688A609A6851609960086171
:10182000036801330360704730B40D68B5F1FF3FC2
:1018300001D1026907E000F1080200E01A4653688E
:101840001C68A542FAD253684B6099608A60516067
:10185000086103680133036030BC70470369426864
:10186000816891608268416851605A68904201D1F4
:1018700082685A60002202611A68013A1A60186888
:10188000704700BF10B5044601F0D4FCA26BE36BB7
:101890009A4201D1012400E0002401F0EDFC204631
:1018A00010BD00BF10B5044601F0C4FCA36B0BB91A
:1018B000012400E0002401F0DFFC204610BD00BF41
:1018C00070B504461646856B026C3AB9036843BB93
:1018D000406800F0E5FF0023636029E06EB980688E
:1018E00001F08CFEA268236C1344A36062689342EB
:1018F00019D32368A36000201AE0C06801F07EFEBF
:10190000236C5B42E2681A44E26021688A4202D298
:1019100062681344E360022E07D145B1013D002007
:1019200006E0002004E0002002E0002000E00020AB
:101930000135A56370BD00BF026C72B110B50346DE
:10194000C4681444C4604068844201D31868D860F5
:101950000846D96801F052FE10BD704738B50546FB
:1019600001F068FC95F8454064B20AE06B6A53B137
:1019700005F1240000F0ECFE08B100F07BFF013C13
:1019800064B2002CF2DCFF2385F8453001F074FCD2
:1019900001F050FC95F8444064B20AE02B6953B161
:1019A00005F1100000F0D4FE08B100F063FF013C27
:1019B00064B2002CF2DCFF2385F8443001F05CFCBB
:1019C00038BD00BF38B540B94FF0500383F31188DC
:1019D000BFF36F8FBFF34F8FFEE704460D4601F054
:1019E00029FC2168E26B236C03FB0210606000207D
:1019F000A063A160013A02FB0313E360FF2384F8B4
:101A0000443084F845307DB92369ABB104F110004E
:101A100000F09EFE80B14FF08052094B1A60BFF378
:101A20004F8FBFF36F8F07E004F11000FFF7E0FE68
:101A300004F12400FFF7DCFE01F01EFC012038BD9C
:101A400004ED00E038B51D46049C0B4609B924603E
:101A500000E02260E063236401212046FFF7B2FF2B
:101A600084F84C5038BD00BF40B94FF0500383F3A9
:101A70001188BFF36F8FBFF34F8FFEE710B584B0AF
:101A8000044643B94FF0500383F31188BFF36F8FBF
:101A9000BFF34F8FFEE712B119B1012002E0012020
:101AA00000E0002040B94FF0500383F31188BFF3EA
:101AB0006F8FBFF34F8FFEE712B919B9012002E013
:101AC000012000E0002040B94FF0500383F311885B
:101AD000BFF36F8FBFF34F8FFEE750200390039843
:101AE000502808D04FF0500383F31188BFF36F8F55
:101AF000BFF34F8FFEE720461C463BB1012384F81D
:101B0000463000949DF81830FFF79CFF204604B043
:101B100010BD00BFF0B585B0019240B94FF0500341
:101B200083F31188BFF36F8FBFF34F8FFEE7044637
:101B300019B9026C1AB9012202E0012200E0002268
:101B400042B94FF0500383F31188BFF36F8FBFF397
:101B50004F8FFEE7022B03D1E26B012A02D102E094
:101B6000012200E0002242B94FF0500383F31188B4
:101B7000BFF36F8FBFF34F8FFEE71D460E4600F099
:101B80007FFE18B9019B1BB9012302E0012300E08D
:101B9000002343B94FF0500383F31188BFF36F8FD5
:101BA000BFF34F8FFEE7002701F044FBA26BE36B0E
:101BB0009A4201D3022D21D12A4631462046FFF711
:101BC0007FFE636A6BB104F1240000F0C1FD88B1AF
:101BD0004FF08052324B1A60BFF34F8FBFF36F8FBD
:101BE00008E038B14FF080522D4B1A60BFF34F8F91
:101BF000BFF36F8F01F040FB01204EE0019B1BB94A
:101C000001F03AFB002048E01FB902A800F0E6FD11
:101C1000012701F031FB00F0D7FB01F00BFB94F83A
:101C200044305BB2B3F1FF3F02D1002384F844306B
:101C300094F845305BB2B3F1FF3F02D1002384F842
:101C4000453001F019FB01A902A800F0D3FDF0B95D
:101C50002046FFF717FEA0B1019904F1100000F033
:101C600043FD2046FFF77AFE00F04EFC00289BD192
:101C70004FF080520A4B1A60BFF34F8FBFF36F8F44
:101C800092E72046FFF76AFE00F03EFC8CE7204614
:101C9000FFF764FE00F038FC002005B0F0BD00BF87
:101CA00004ED00E02DE9F84340B94FF0500383F311
:101CB0001188BFF36F8FBFF34F8FFEE7044619B94A
:101CC000006C18B9012002E0012000E0002040B9BA
:101CD0004FF0500383F31188BFF36F8FBFF34F8F23
:101CE000FEE7022B03D1E06B012802D102E00120C4
:101CF00000E0002040B94FF0500383F31188BFF398
:101D00006F8FBFF34F8FFEE71F469046894601F065
:101D1000BBFBEFF311864FF0500383F31188BFF341
:101D20006F8FBFF34F8FA26BE36B9A4201D3022FE9
:101D30001ED194F845506DB23A4649462046FFF709
:101D4000BFFDB5F1FF3F0DD1636A9BB104F12400E3
:101D500000F0FEFC80B1B8F1000F0FD00120C8F8F0
:101D600000000CE06B1C5BB284F84530012006E0FB
:101D7000002004E0012002E0012000E0012086F3C1
:101D80001188BDE8F88300BFF0B585B0019240B975
:101D90004FF0500383F31188BFF36F8FBFF34F8F62
:101DA000FEE7044619B9036C1BB9012302E00123C5
:101DB00000E0002343B94FF0500383F31188BFF3D1
:101DC0006F8FBFF34F8FFEE70E4600F059FD18B935
:101DD000019B1BB9012302E0012300E0002343B96A
:101DE0004FF0500383F31188BFF36F8FBFF34F8F12
:101DF000FEE7002701F01EFAA56BC5B1314620466B
:101E0000FFF79AFD013DA563236963B104F110005A
:101E100000F09EFC38B14FF08052304B1A60BFF397
:101E20004F8FBFF36F8F01F027FA012053E0019B22
:101E30001BB901F021FA00204DE01FB902A800F003
:101E4000CDFC012701F018FA00F0BEFA01F0F2F91A
:101E500094F844305BB2B3F1FF3F02D1002384F821
:101E6000443094F845305BB2B3F1FF3F02D1002318
:101E700084F8453001F000FA01A902A800F0BAFC8C
:101E8000F0B92046FFF70EFDA0B1019904F124003E
:101E900000F02AFC2046FFF761FD00F035FB00282A
:101EA000A8D14FF080520D4B1A60BFF34F8FBFF394
:101EB0006F8F9FE72046FFF751FD00F025FB99E764
:101EC0002046FFF74BFD00F01FFB2046FFF7EAFC22
:101ED00000288FD0002005B0F0BD00BF04ED00E069
:101EE00000230BE0074A52F8332032B9054A42F882
:101EF000331002EBC303586070470133072BF1D94D
:101F0000704700BFC019002070B504460D46164644
:101F100001F090F994F844305BB2B3F1FF3F02D185
:101F2000002384F8443094F845305BB2B3F1FF3FAE
:101F300002D1002384F8453001F09EF9A36B2BB940
:101F40003246294604F1240000F0E6FB2046FFF764
:101F500005FD70BD0A4B1B681B680BB9012300E02F
:101F6000002323B14FF0FF32064B1A607047044B39
:101F70001B68DB68DB685A68024B1A60704700BF59
:101F80002C000020DC0400202DE9F04781460D469E
:101F900017469A46089EDDF824800A9C9200A521E7
:101FA000206B01F036FB236B07F18042013A03EB13
:101FB000820727F00707002306E0E95CE21882F8B1
:101FC0003410EA5C12B101330F2BF6D9002384F8E8
:101FD0004330372E00D93726E662E66400252565B2
:101FE000201DFFF711FC04F11800FFF70DFC246120
:101FF000C6F13806A6616462656584F85850524699
:102000004946384601F0ECF82060B8F1000F01D0E5
:10201000C8F80040BDE8F08738B5002407E004EBBD
:10202000840293000E481844FFF7E2FB0134372C7A
:10203000F5D90C4D2846FFF7DBFB0B4C2046FFF78C
:10204000D7FB0A48FFF7D4FB0948FFF7D1FB094843
:10205000FFF7CEFB084B1D60084B1C6038BD00BF6E
:1020600050000020E4040020F8040020C0040020F8
:10207000340000200C0500202C0000204800002027
:1020800010B5044601F0D6F8204A136801331360F6
:102090001F4B1B683BB91E4B1C601368012B0DD1F5
:1020A000FFF7BAFF0AE01B4B1B683BB9184B1B68D4
:1020B000DA6AE36A9A4201D8154B1C60164A136823
:1020C000013313606364E36A144A1268934201D9CE
:1020D000124A136003EB83039A00211D1048104439
:1020E000FFF796FB01F0C8F80A4B1B686BB1084B71
:1020F0001B68DA6AE36A9A4207D24FF08052094BB2
:102100001A60BFF34F8FBFF36F8F10BDB80400206C
:10211000BC04002030000020E00400202005002046
:102120005000002004ED00E010B5044690F859304E
:1021300033B9006B00F0DAFF204600F0D7FF10BD86
:10214000012B02D100F0D2FF10BD022B08D04FF0BE
:10215000500383F31188BFF36F8FBFF34F8FFEE7F8
:1021600010BD00BF10B514E001F064F80B4BDB6844
:10217000DC68201DFFF772FB094A1368013B1360FE
:10218000084A1368013B136001F076F82046FFF718
:10219000CBFF044B1B68002BE6D110BD34000020A0
:1021A000B8040020B404002008B5FFF7DBFF064B9D
:1021B0001B68012BF9D94FF08052044B1A60BFF312
:1021C0004F8FBFF36F8FF0E75000002004ED00E069
:1021D00070B504460E46174B1D68174B186804303F
:1021E000FFF73CFBB4F1FF3F07D136B1124B196842
:1021F00004311248FFF70CFB70BD2C440E4B1B68DA
:102200005C60A54207D90E4B18680B4B1968043166
:10221000FFF70AFB70BD0B4B1868074B19680431B8
:10222000FFF702FB084B1B689C4201D2064B1C6067
:1022300070BD00BFD8040020BC0400200C050020A5
:10224000480000202C000020DC04002070B586B07F
:102250000B9D0C9C45B94FF0500383F31188BFF3DD
:102260006F8FBFF34F8FFEE744B94FF0500383F3F6
:102270001188BFF36F8FBFF34F8FFEE75C26049684
:10228000049E5C2E08D04FF0500383F31188BFF3F7
:102290006F8FBFF34F8FFEE78CB185B125630225A9
:1022A00084F8595000250395029405AD01950A9DC7
:1022B0000095FFF769FE2046FFF7E2FE01E00023EC
:1022C0000593059806B070BD2DE9F04385B006462C
:1022D0000F4615469846900000F086FE60B1814694
:1022E0005C2000F081FE044610B1C0F8309004E09C
:1022F000484600F0FBFE00E000249CB1002384F877
:102300005930039302940D9B01930C9B0093434619
:102310002A4639463046FFF737FE2046FFF7B0FE23
:10232000012001E04FF0FF3005B0BDE8F08300BFB1
:1023300010B588B000240594069407AA06A905A83C
:1023400000F0DCFD059B0293069B0193009423465D
:10235000079A18491848FFF779FF08B1012000E0F3
:102360000020012801D100F04FFB012814D14FF0CB
:10237000500383F31188BFF36F8FBFF34F8F4FF07C
:10238000FF320E4B1A6001220D4B1A6000220D4BDA
:102390001A6000F0F1FF0BE0B0F1FF3F08D14FF001
:1023A000500383F31188BFF36F8FBFF34F8FFEE7A6
:1023B00008B010BD18370008A9210008DC0400206F
:1023C00030000020D8040020024A13680133136053
:1023D000704700BFB0040020014B1868704700BF71
:1023E000D8040020F8B53D4B1B68002B68D13C4B4E
:1023F0001D6801351D60C5B93A4B1B681B6843B1A8
:102400004FF0500383F31188BFF36F8FBFF34F8FEB
:10241000FEE7344A1168344B186810601960334A7B
:10242000136801331360FFF795FD314B1B689D4224
:1024300003D2002439E0012400E00024294B1B686A
:102440001B680BB9012300E0002323B14FF0FF32DA
:10245000274B1A6029E0234B1B68DB68DE68736832
:102460009D4202D2224A13601FE0371D3846FFF713
:10247000F5F9B36A1BB106F11800FFF7EFF9F36A3B
:102480001C4A1268934201D91A4A136003EB830372
:102490009A00394618481044FFF7BAF9F26A174B08
:1024A0001B68DB6A9A42C6D2C8E7144B1B68DB6A1A
:1024B00003EB83039A00104B9B58012B06D806E0D0
:1024C0000F4A136801331360002400E001240D4B10
:1024D0001B6803B101242046F8BD00BFB0040020F2
:1024E000D80400202C00002048000020D404002044
:1024F000DC0400202005002050000020BC04002047
:102500004C0000202405002038B5344B1B6843B92B
:102510004FF0500383F31188BFF36F8FBFF34F8FDA
:10252000FEE700F087FE2D4B1A68013A1A601B681F
:10253000002B4BD12A4B1B682BBB002449E0294BB5
:10254000DB68DC6804F11800FFF788F9251D2846D0
:10255000FFF784F9E36A244A1268934201D9224AB8
:10256000136003EB83039A00294620481044FFF7C9
:102570004FF9E26A1E4B1B68DB6A9A4204D30122C0
:102580001C4B1A6000E00024164B1B68002BD6D1B0
:102590000CB1FFF7DFFC184B1C6854B1FFF722FFAA
:1025A00010B10122134B1A60013CF7D10022124BEB
:1025B0001A60104B1B685BB14FF080520F4B1A60D2
:1025C000BFF34F8FBFF36F8F012402E0002400E0C0
:1025D000002400F051FE204638BD00BFB0040020AA
:1025E000B8040020C0040020200500205000002076
:1025F000BC040020240500204C00002004ED00E075
:1026000010B5A8B10446104B1B6843B14FF05003FE
:1026100083F31188BFF36F8FBFF34F8FFEE7FFF790
:10262000D3FE00212046FFF7D3FDFFF76DFF00E04A
:10263000002038B94FF08052044B1A60BFF34F8F1F
:10264000BFF36F8F10BD00BFB004002004ED00E0A9
:10265000204B1B681BB101221F4B1A6070470022E0
:102660001D4B1A601D4B1B680AE043B94FF0500325
:1026700083F31188BFF36F8FBFF34F8FFEE7013BEA
:1026800003EB83018A0016498A58002AEDD030B442
:102690000D469900CA189000284442685468446066
:1026A00019448A0008322A44944205D1606803EB39
:1026B00083018A002A44506003EB83018A000849A1
:1026C0000A445268D168074A1160044A136030BC5A
:1026D000704700BFB0040020240500202005002022
:1026E00050000020BC04002040B94FF0500383F399
:1026F0001188BFF36F8FBFF34F8FFEE710B50C4605
:10270000044B19681831FFF78FF801212046FFF7B5
:102710005FFD10BDBC04002038B540B94FF0500338
:1027200083F31188BFF36F8FBFF34F8FFEE70C4623
:102730001546064A11681831FFF76AF80DB14FF0D7
:10274000FF3429462046FFF743FD38BDBC04002076
:1027500038B5C368DC6844B94FF0500383F311887F
:10276000BFF36F8FBFF34F8FFEE704F118052846C4
:10277000FFF774F8134B1B689BB9251D2846FFF71C
:102780006DF8E36A104A1268934201D90E4A136049
:1027900003EB83039A0029460C481044FFF738F8EE
:1027A00003E029460A48FFF733F8E26A094B1B6841
:1027B000DB6A9A4203D90120074B186038BD00201C
:1027C00038BD00BFB00400202005002050000020CC
:1027D000C0040020BC04002024050020034B1B681B
:1027E0000360034B1B684360704700BFD4040020A4
:1027F000D8040020F8B540B94FF0500383F3118896
:10280000BFF36F8FBFF34F8FFEE7054641B94FF01F
:10281000500383F31188BFF36F8FBFF34F8FFEE731
:102820000C4600F007FD114B18686968421A2368CE
:10283000B3F1FF3F13D02F680D4E3668B74201D079
:1028400088420ED29A4206D29B1A23602846FFF78E
:10285000C5FF002406E000232360012402E00024D9
:1028600000E0012400F008FD2046F8BDD804002057
:10287000D40400200122014B1A6070472405002077
:10288000054B1B6823B1054B1B681BB90220704721
:10289000012070470020704730000020B004002065
:1028A00000283AD038B503461F4A1268904208D033
:1028B0004FF0500383F31188BFF36F8FBFF34F8F37
:1028C000FEE7026D42B94FF0500383F31188BFF366
:1028D0006F8FBFF34F8FFEE7013A0265C06AD96C74
:1028E00088421CD0EAB91C461D1D2846FEF7B6FFDB
:1028F000E36CE362C3F13802A2610C4A12689342AE
:1029000001D90A4A136003EB83039A002946084859
:102910001044FEF77DFF012038BD002070470020E5
:1029200038BD002038BD00BFBC04002020050020B9
:1029300050000020064B1A681368B3FA83F35B0952
:10294000036013B9D368186870470020704700BF50
:102950002805002008B54160006191420AD8D21ACA
:1029600083699A4211D2011D0A4B1868FEF75CFF79
:10297000002008BD9A4201D2994208D2011D064B9F
:102980001868FEF751FF002008BD012008BD012096
:1029900008BD00BF4C0600202805002030B583B0DC
:1029A00000F048FC104B1B68CBB9104D2846FEF7D1
:1029B0001FFF0F4C2046FEF71BFF0E4B1D600E4BFA
:1029C0001C60002300930D4B0D4A10210A20FFF7D5
:1029D0004BF8054B186010B10A49FFF781FA00F077
:1029E0004BFC03B030BD00BF480600202C05002082
:1029F00040050020280500204C060020F805002096
:102A0000580500202037000810B588B0FFF7C6FF32
:102A1000154B1B68D3B100240594069407AA06A998
:102A200005A800F077FA059B0293069B0193022309
:102A300000932346079A0D490D48FFF707FC0D4BFD
:102A4000186008B9204602E0012000E0002040B9EB
:102A50004FF0500383F31188BFF36F8FBFF34F8F95
:102A6000FEE708B010BD00BF480600202837000868
:102A70002D2D00085006002040B94FF0500383F37D
:102A80001188BFF36F8FBFF34F8FFEE730B585B06E
:102A900015460446124A1068F0B11A460091019595
:102AA0000294052913DCFFF7EBFE022807D100236F
:102AB000089A69460A480068FFF72CF80DE00023E1
:102AC0001A46694606480068FFF724F805E0002327
:102AD0006946FFF7E7F800E0002005B030BD00BF11
:102AE0004806002070B582B029E0DB681E68DC680B
:102AF000251D2846FEF7B2FE636A20469847E36923
:102B0000012B1CD1A36933449E4207D26360246128
:102B10002946114B1868FEF787FE10E0002100914E
:102B20000B4632462046FFF7A7FF40B94FF050034F
:102B300083F31188BFF36F8FBFF34F8FFEE7064B10
:102B40001B681A68002AD0D1044A1068024908603C
:102B5000136002B070BD00BF280500204C060020A5
:102B600038B50546FFF738FC0446074B1B6898420A
:102B700004D2FFF7B7FF01232B6001E000232B6095
:102B8000014B1C60204638BD5405002070B582B052
:102B900005460E46134B1B68DB68DC68201DFEF7FC
:102BA0005DFEE369012B18D1A1692B463246294409
:102BB0002046FFF7CFFE80B1002100910B462A4648
:102BC0002046FFF759FF40B94FF0500383F31188B7
:102BD000BFF36F8FBFF34F8FFEE7636A20469847BE
:102BE00002B070BD2805002070B582B006460C46C4
:102BF000FFF7EAFB01A8FFF7B3FF019B1BBB0546EC
:102C000044B9B04206D3FFF77FFC29463046FFF7B0
:102C1000BDFF1AE02CB10E4B1B681C68B4FA84F49B
:102C200064092246711B0B4B1868FFF76DF9FFF71B
:102C30006BFC50B94FF08052074B1A60BFF34F8FB7
:102C4000BFF36F8F01E0FFF75FFC02B070BD00BF04
:102C50004C0600204806002004ED00E030B589B0A5
:102C600057E0049B002B03DA07990698059B9847C9
:102C7000049B002B4DDB069C636913B1201DFEF7FE
:102C8000EDFD03A8FFF76CFF049B092B41D8DFE89B
:102C900003F005050540273A050540270599A56974
:102CA0000B46024629442046FFF754FE88B3636A68
:102CB00020469847E369012B2BD1A269002100919E
:102CC0000B46059802442046FFF7D6FE08BB4FF09E
:102CD000500383F31188BFF36F8FBFF34F8FFEE76D
:102CE0000599A16141B94FF0500383F31188BFF3F7
:102CF0006F8FBFF34F8FFEE7034602460144204625
:102D0000FFF728FE05E094F82C3013B9204600F0B8
:102D1000EDF9002204A9044B1868FFF735F80028E4
:102D20009FD109B030BD00BF4806002000B583B078
:102D300001A8FFF7FFFD0199FFF756FFFFF78EFF90
:102D4000F6E700BFEFF305837BB9EFF310837BB9A0
:102D50000C4B1B68022B02D1EFF311825AB96BB9ED
:102D60000122084B1A60002070476FF00500704781
:102D70006FF0050070476FF0050070474FF0FF30AF
:102D8000704700BFB00C002008B5EFF3058393B97E
:102D9000EFF3108393B90E4B1B68022B02D1EFF3B4
:102DA000118272B9012B0FD10222094B1A60FFF771
:102DB000BFFA002008BD6FF0050008BD6FF00500E8
:102DC00008BD6FF0050008BD4FF0FF3008BD00BF23
:102DD000B00C0020F0B587B000240494EFF3058414
:102DE000002C61D1EFF31083002B5DD1324B1B68B7
:102DF000022B03D1EFF31183002B55D1002853D0C0
:102E000000238DF8173022B316680EB90DF117069E
:102E1000946904B91824631E372B47D8536813F0FC
:102E2000010F45D1536913B14FEA930E01E04FF002
:102E3000800E95682DB1D7685B2F02D9176907B14D
:102E400073B97DB9D36883B913698BB14FF0FF357E
:102E50000FE0002518244FF0800E0DF1170608E052
:102E6000012506E04FF0FF3503E04FF0FF3500E0AD
:102E700000250B46012D0AD1116992680292019139
:102E8000009472463146FFF7E1F904900CE05DB919
:102E900004AA019200941FFA8EF23146FFF714FA49
:102EA000012801D000230493049802E0002000E0F0
:102EB000002007B0F0BD00BFB00C002008B5EFF354
:102EC000058373B9EFF3108373B90B4B1B68022BA7
:102ED00002D1EFF3118353B960B1FFF791FB0020EA
:102EE00008BD6FF0050008BD6FF0050008BD6FF06C
:102EF000050008BD002008BDB00C0020034B036096
:102F0000034B0B6080231360704700BF5408002000
:102F100054060020034B0360034B0B604FF4807397
:102F200013607047B40C0020B0080020124A12F061
:102F3000070F07D0D11D21F00701C1F540631344ED
:102F40000A4601E04FF440630C48026000214160F2
:102F50001344083B23F007030948036059601960D4
:102F6000991A51601360074B1960074B19604FF0B5
:102F70000042064B1A607047200D0020180D0020FB
:102F8000140D002024190020100D0020201900200D
:102F9000134B00E013461A688242FBD310B45C68FE
:102FA0001919884203D14168214459601846446880
:102FB00001198A420CD10B4909688A4206D052682D
:102FC000224442601A681268026002E0016000E078
:102FD0000260984200D018605DF8044B704700BF53
:102FE000180D0020140D002070B50446FFF7ECF911
:102FF000394B1B680BB9FFF799FF384B1B681C4214
:1030000053D194B1083414F0070F0ED024F0070404
:10301000083404F0070343B14FF0500383F31188E1
:10302000BFF36F8FBFF34F8FFEE7002C3FD02C4BC9
:103030001B689C423DD82B4B1D6801E02B46154672
:103040006A68944202D92A68002AF7D1224A126893
:10305000954230D01E6808362A681A606B681B1BC0
:10306000102B10D9281910F0070F08D04FF050037B
:1030700083F31188BFF36F8FBFF34F8FFEE7436079
:103080006C60FFF785FF6A6815490B689B1A0B6037
:10309000154909688B4201D213490B600F4B1B681D
:1030A0001A436A6000232B6006E0002604E0002635
:1030B00002E0002600E00026FFF726FA16F0070FD0
:1030C00008D04FF0500383F31188BFF36F8FBFF325
:1030D0004F8FFEE7304670BD140D002020190020F0
:1030E000100D0020180D002024190020A0B338B5C1
:1030F0000346A0F1080550F8042C1849096812EAA3
:10310000010408D14FF0500383F31188BFF36F8F90
:10311000BFF34F8FFEE750F8080C40B14FF050035B
:1031200083F31188BFF36F8FBFF34F8FFEE794B126
:1031300088B91C4622EA010243F8042CFFF744F93F
:1031400054F8043C064A11680B4413602846FFF704
:103150001FFFFFF7D9F938BD704700BF20190020C5
:10316000100D002082B0002301930D4B1B68B3F1BA
:10317000FF3F08D04FF0500383F31188BFF36F8FE8
:10318000BFF34F8FFEE74FF0500383F31188BFF377
:103190006F8FBFF34F8F019B002BFCD002B07047A5
:1031A0000C00002008480068006880F308884FF091
:1031B000000080F3148862B661B6BFF34F8FBFF38F
:1031C0006F8F00DF00BF000008ED00E0DFF80C00AB
:1031D000016841F4700101607047000088ED00E073
:1031E0004FF0807340F8043C21F0010140F8081CC6
:1031F000054B40F80C3C40F8202C6FF0020340F8DF
:10320000243C4438704700BF6531000800000000CE
:10321000074B19680868B0E8F04F80F30988BFF3DE
:103220006F8F4FF0000080F311887047AFF300807C
:10323000BC0400204FF0500383F31188BFF36F8F5D
:10324000BFF34F8F0A4A136801331360012B0DD16E
:10325000084B1B6813F0FF0F08D04FF0500383F3A7
:103260001188BFF36F8FBFF34F8FFEE7704700BF2A
:103270000C00002004ED00E0094B1B6843B94FF03F
:10328000500383F31188BFF36F8FBFF34F8FFEE7B7
:10329000013B034A13600BB983F31188704700BFE9
:1032A0000C000020000000000000000000000000F2
:1032B000EFF30980BFF36F8F154B1A681EF0100FE4
:1032C00008BF20ED108A20E9F04F10602DE90900B9
:1032D0004FF0500080F31188BFF34F8FBFF36F8F13
:1032E000FFF7B6F94FF0000080F3118809BC1968A8
:1032F0000868B0E8F04F1EF0100F08BFB0EC108A5D
:1033000080F30988BFF36F8F704700BFAFF3008071
:10331000BC04002008B54FF0500383F31188BFF3BD
:103320006F8FBFF34F8FFFF75DF818B14FF08052EA
:10333000024B1A60002383F3118808BD04ED00E0FE
:10334000084A0023136008490B60084B1B680849B2
:10335000A1FB03139B09013B06490B600723136084
:10336000704700BF10E000E018E000E00800002017
:10337000D34D621014E000E03A4B1A683A4B9A427F
:1033800008D14FF0500383F31188BFF36F8FBFF361
:103390004F8FFEE7334B1A68344B9A4208D14FF0F7
:1033A000500383F31188BFF36F8FBFF34F8FFEE796
:1033B00010B582B02E4B1A78D2B20192FF221A7049
:1033C0001B78DBB28DF803309DF8033003F0500317
:1033D000284A13700722284B1A6009E0264A13680E
:1033E000013B13609DF803305B00DBB28DF80330C6
:1033F0009DF8033013F0800FF0D11F4B1B68032B97
:1034000008D04FF0500383F31188BFF36F8FBFF3E1
:103410004F8FFEE71B0203F4E063174A1360019B22
:10342000DBB2134A1370154B1A6842F470021A602B
:103430001A6842F070421A60FFF782FF0024104BB6
:103440001C60FFF7C3FE0F4A136843F0404313604C
:10345000FFF7A8FEFFF7FCF8FFF784FE204602B056
:1034600010BD00BF00ED00E071C20F4170C20F41FE
:1034700000E400E0281900202C19002020ED00E0D5
:103480000C00002034EF00E0EFF305830F2B0FD981
:10349000104A9B5CDBB2104A1278934208D24FF07C
:1034A000500383F31188BFF36F8FBFF34F8FFEE795
:1034B0000A4B1B6803F4E063094A1268934208D977
:1034C0004FF0500383F31188BFF36F8FBFF34F8F1B
:1034D000FEE77047F0E300E0281900200CED00E063
:1034E0002C19002000B589B0002201461920FDF7F3
:1034F00073FD1920FDF7A2FD144B9A6942F4006296
:103500009A619B6903F400630193019B02A903A8DC
:10351000FDF760FCFDF746FC0D4BA3FB00239B0C65
:10352000013B0C480C4A026040F2E732C260436043
:10353000002303618360FDF7B7FE18B90548FDF766
:103540008DFD00E0012009B05DF804FB0010024091
:1035500083DE1B43001A0020002C0140DFF834D02A
:10356000002103E00C4B5B58435004310B480C4BDB
:1035700042189A42F6D30B4A02E0002342F8043B79
:10358000094B9A42F9D3FEF725F900F011F8FCF740
:10359000EBFEFEE700400020383700080000002066
:1035A0001000002010000020401A0020FEE700005C
:1035B00070B50E4B0E4CE41AA41000251E46A54211
:1035C00004D056F8253098470135F8E700F02AF87E
:1035D000084C094BE41AA41000251E46A54204D04D
:1035E00056F8253098470135F8E770BD30370008A8
:1035F00030370008343700083037000810B5431E54
:103600000A44914204D011F8014B03F8014FF8E746
:1036100010BD02440346934202D003F8011BFAE7AF
:1036200070470000F8B500BFF8BC08BC9E46704764
:0C363000F8B500BFF8BC08BC9E4670470F
:10363C00B036000800000000000000000000000090
:10364C0000000000800000001800000000000000D6
:10365C0000000000A0360008000000000000000080
:10366C0000000000000000008000000019000000B5
:10367C00000000000000000054657374204D657359
:10368C00736167650A0D0000636F6D555342546199
:10369C00736B0000626C696E6B4C45445461736BC8
:1036AC000000000064656661756C745461736B0096
:1036BC00943600080000000000000000000000002C
:1036CC000000000080000000190000000000000055
:1036DC00000000000102030405060708090A0B0C90
:1036EC000D0E0F1002030405060708090A0B0C0D3A
:1036FC000E0F101000000000000000000102030477
:10370C0006070809000000000102030449444C4567
:10371C0000000000546D725100000000546D7220C6
:04372C00537663006D
:04373000B5010008D7
:0437340091010008F7
:10373800100000000100000000127A00AAAAAAAA3C
:040000050800355D5D
:00000001FF
